{
  "contractName": "Escrow",
  "abi": [
    {
      "constant": true,
      "inputs": [],
      "name": "status",
      "outputs": [
        {
          "name": "",
          "type": "uint8"
        }
      ],
      "payable": false,
      "stateMutability": "view",
      "type": "function"
    },
    {
      "constant": true,
      "inputs": [
        {
          "name": "",
          "type": "address"
        }
      ],
      "name": "approvals",
      "outputs": [
        {
          "name": "",
          "type": "bool"
        }
      ],
      "payable": false,
      "stateMutability": "view",
      "type": "function"
    },
    {
      "constant": true,
      "inputs": [],
      "name": "employee",
      "outputs": [
        {
          "name": "",
          "type": "address"
        }
      ],
      "payable": false,
      "stateMutability": "view",
      "type": "function"
    },
    {
      "constant": true,
      "inputs": [],
      "name": "amount",
      "outputs": [
        {
          "name": "",
          "type": "uint8"
        }
      ],
      "payable": false,
      "stateMutability": "view",
      "type": "function"
    },
    {
      "constant": true,
      "inputs": [],
      "name": "employer",
      "outputs": [
        {
          "name": "",
          "type": "address"
        }
      ],
      "payable": false,
      "stateMutability": "view",
      "type": "function"
    },
    {
      "inputs": [
        {
          "name": "_employer",
          "type": "address"
        },
        {
          "name": "_employee",
          "type": "address"
        },
        {
          "name": "_amount",
          "type": "uint8"
        }
      ],
      "payable": false,
      "stateMutability": "nonpayable",
      "type": "constructor"
    },
    {
      "anonymous": false,
      "inputs": [],
      "name": "fundsTransfered",
      "type": "event"
    },
    {
      "anonymous": false,
      "inputs": [],
      "name": "fundsRefunded",
      "type": "event"
    },
    {
      "constant": false,
      "inputs": [],
      "name": "approve",
      "outputs": [],
      "payable": false,
      "stateMutability": "nonpayable",
      "type": "function"
    },
    {
      "constant": false,
      "inputs": [],
      "name": "deposit",
      "outputs": [],
      "payable": true,
      "stateMutability": "payable",
      "type": "function"
    },
    {
      "constant": false,
      "inputs": [],
      "name": "inititateRefund",
      "outputs": [],
      "payable": true,
      "stateMutability": "payable",
      "type": "function"
    }
  ],
  "bytecode": "0x6060604052341561000f57600080fd5b60405160608061080d83398101604052808051906020019091908051906020019091908051906020019091905050826000806101000a81548173ffffffffffffffffffffffffffffffffffffffff021916908373ffffffffffffffffffffffffffffffffffffffff16021790555081600160006101000a81548173ffffffffffffffffffffffffffffffffffffffff021916908373ffffffffffffffffffffffffffffffffffffffff16021790555080600160146101000a81548160ff021916908360ff1602179055506000600360006101000a81548160ff021916908360038111156100f857fe5b021790555061011861012064010000000002610473176401000000009004565b505050610179565b600160149054906101000a900460ff1660ff163073ffffffffffffffffffffffffffffffffffffffff1631101515610177576001600360006101000a81548160ff0219169083600381111561017157fe5b02179055505b565b610685806101886000396000f30060606040526004361061008e576000357c0100000000000000000000000000000000000000000000000000000000900463ffffffff16806312424e3f14610093578063200d2ed2146100a85780635d0341ba146100df578063886f44f814610130578063a0a1a7d71461013a578063aa8c217c1461018f578063ae200e79146101be578063d0e30db014610213575b600080fd5b341561009e57600080fd5b6100a661021d565b005b34156100b357600080fd5b6100bb6102b3565b604051808260038111156100cb57fe5b60ff16815260200191505060405180910390f35b34156100ea57600080fd5b610116600480803573ffffffffffffffffffffffffffffffffffffffff169060200190919050506102c6565b604051808215151515815260200191505060405180910390f35b6101386102e6565b005b341561014557600080fd5b61014d610415565b604051808273ffffffffffffffffffffffffffffffffffffffff1673ffffffffffffffffffffffffffffffffffffffff16815260200191505060405180910390f35b341561019a57600080fd5b6101a261043b565b604051808260ff1660ff16815260200191505060405180910390f35b34156101c957600080fd5b6101d161044e565b604051808273ffffffffffffffffffffffffffffffffffffffff1673ffffffffffffffffffffffffffffffffffffffff16815260200191505060405180910390f35b61021b610473565b005b6001600381111561022a57fe5b600360009054906101000a900460ff16600381111561024557fe5b14151561025157600080fd5b6001600260003373ffffffffffffffffffffffffffffffffffffffff1673ffffffffffffffffffffffffffffffffffffffff16815260200190815260200160002060006101000a81548160ff0219169083151502179055506102b16104cc565b565b600360009054906101000a900460ff1681565b60026020528060005260406000206000915054906101000a900460ff1681565b600160038111156102f357fe5b600360009054906101000a900460ff16600381111561030e57fe5b14158061034157506002600381111561032357fe5b600360009054906101000a900460ff16600381111561033e57fe5b14155b151561034c57600080fd5b60038060006101000a81548160ff0219169083600381111561036a57fe5b02179055506000809054906101000a900473ffffffffffffffffffffffffffffffffffffffff1673ffffffffffffffffffffffffffffffffffffffff166108fc3073ffffffffffffffffffffffffffffffffffffffff16319081150290604051600060405180830381858888f1935050505015156103e757600080fd5b7fdb0842661c3374df863a82eea79c04fcec016671f979013e133bfb0653d0a2db60405160405180910390a1565b600160009054906101000a900473ffffffffffffffffffffffffffffffffffffffff1681565b600160149054906101000a900460ff1681565b6000809054906101000a900473ffffffffffffffffffffffffffffffffffffffff1681565b600160149054906101000a900460ff1660ff163073ffffffffffffffffffffffffffffffffffffffff16311015156104ca576001600360006101000a81548160ff021916908360038111156104c457fe5b02179055505b565b600260008060009054906101000a900473ffffffffffffffffffffffffffffffffffffffff1673ffffffffffffffffffffffffffffffffffffffff1673ffffffffffffffffffffffffffffffffffffffff16815260200190815260200160002060009054906101000a900460ff1680156105b1575060026000600160009054906101000a900473ffffffffffffffffffffffffffffffffffffffff1673ffffffffffffffffffffffffffffffffffffffff1673ffffffffffffffffffffffffffffffffffffffff16815260200190815260200160002060009054906101000a900460ff165b1561065757600160009054906101000a900473ffffffffffffffffffffffffffffffffffffffff1673ffffffffffffffffffffffffffffffffffffffff166108fc600160149054906101000a900460ff1660ff169081150290604051600060405180830381858888f19350505050151561062a57600080fd5b7f521d80f836c75f8c45e68f5e9ff6210676611b8623160505785a17aeecd6140d60405160405180910390a15b5600a165627a7a723058204c7872cd715edf210aaf4353c97fc03fcf6fe81823206ee488280e24e24f663e0029",
  "source": "pragma solidity ^0.4.2;\n\ncontract Escrow {\n\n  enum EscrowState {\n    PENDING,\n    FULLY_DEPOSITED,\n    TRANSFERED,\n    REFUNDED\n  }\n\n  address public employer;\n  address public employee;\n\n  uint8 public amount;\n\n  mapping (address => bool) public approvals;\n\n  EscrowState public status;\n\n  event fundsTransfered();\n  event fundsRefunded();\n\n  function Escrow(address _employer, address _employee, uint8 _amount) public {\n    employer = _employer;\n    employee = _employee;\n    amount = _amount;\n    status = EscrowState.PENDING;\n    deposit();\n  }\n\n  function approve() public {\n    require(status == EscrowState.FULLY_DEPOSITED);\n    approvals[msg.sender] = true;\n    initiateFundsRelease();\n  } \n\n  function initiateFundsRelease () private {\n    if(approvals[employer] && approvals[employee]) {\n      employee.transfer(amount);\n      emit fundsTransfered();\n    }\n  }\n\n  function deposit () public payable {\n    if (address(this).balance >= amount){\n      status = EscrowState.FULLY_DEPOSITED; \n    }\n  }\n\n  function inititateRefund () public payable {\n    require(status != EscrowState.FULLY_DEPOSITED || status != EscrowState.TRANSFERED);\n    \n    status = EscrowState.REFUNDED;\n    employer.transfer(address(this).balance);\n    emit fundsRefunded();\n  }\n}\n",
  "sourcePath": "/home/aiman/workspace/work/solidity/solidity_boilerplate/contracts/Escrow.sol",
  "compiler": {
    "name": "solc",
    "version": "0.4.21+commit.dfe3193c.Emscripten.clang"
  },
  "schemaVersion": "2.0.0",
  "updatedAt": "2018-04-19T08:59:05.546Z"
}